{
  "transactions": [
    {
      "hash": "0x721adbae5c8eaad598410eea36deb79022aabfe87bfc8ccaa7f13fde0f4f7de4",
      "transactionType": "CALL",
      "contractName": null,
      "contractAddress": "0x63e2fca219a486679bc02a5f1c967b5e8fe73c9d",
      "function": "mintNft(string)",
      "arguments": [
        "https://ipfs.io/ipfs/bafybeig37ioir76s7mg5oobetncojcm3c3hxasyd4rvid4jqhy4gkaheg4/?filename=0-PUG.json"
      ],
      "transaction": {
        "from": "0x5c14608e0b38ee4473fe2e973027f62a73f088e4",
        "to": "0x63e2fca219a486679bc02a5f1c967b5e8fe73c9d",
        "gas": "0x39ba7",
        "value": "0x0",
        "input": "0xda86f4a90000000000000000000000000000000000000000000000000000000000000020000000000000000000000000000000000000000000000000000000000000006568747470733a2f2f697066732e696f2f697066732f62616679626569673337696f6972373673376d67356f6f6265746e636f6a636d3363336878617379643472766964346a71687934676b61686567342f3f66696c656e616d653d302d5055472e6a736f6e000000000000000000000000000000000000000000000000000000",
        "nonce": "0x7",
        "chainId": "0xaa36a7"
      },
      "additionalContracts": [],
      "isFixedGasLimit": false
    }
  ],
  "receipts": [
    {
      "status": "0x1",
      "cumulativeGasUsed": "0x653c04",
      "logs": [
        {
          "address": "0x63e2fca219a486679bc02a5f1c967b5e8fe73c9d",
          "topics": [
            "0xddf252ad1be2c89b69c2b068fc378daa952ba7f163c4a11628f55a4df523b3ef",
            "0x0000000000000000000000000000000000000000000000000000000000000000",
            "0x0000000000000000000000005c14608e0b38ee4473fe2e973027f62a73f088e4",
            "0x0000000000000000000000000000000000000000000000000000000000000002"
          ],
          "data": "0x",
          "blockHash": "0x91a3f16a0831f47dff253454ba9f58765f9d3d59b50b4e916424ac1923aa781b",
          "blockNumber": "0x9347b5",
          "blockTimestamp": "0x691bd104",
          "transactionHash": "0x721adbae5c8eaad598410eea36deb79022aabfe87bfc8ccaa7f13fde0f4f7de4",
          "transactionIndex": "0x35",
          "logIndex": "0x60",
          "removed": false
        }
      ],
      "logsBloom": "0x04000000000000000000000000000000000000000000000000000000000000000000000000000000000000000000000000000000000000000000000000000000000000000000000000200008000000000000000000000000000000000000000000000000020000000000000000000800000000000000000000000010000000000000000000000000000000000000000000000000000000000000000000000000000000000000000000000100000000000000000000000000000000000000000000000002000400000000000000000000000000000000000000000000000020002000000800000000000000000000000000000000008008000100000000000000",
      "type": "0x2",
      "transactionHash": "0x721adbae5c8eaad598410eea36deb79022aabfe87bfc8ccaa7f13fde0f4f7de4",
      "transactionIndex": "0x35",
      "blockHash": "0x91a3f16a0831f47dff253454ba9f58765f9d3d59b50b4e916424ac1923aa781b",
      "blockNumber": "0x9347b5",
      "gasUsed": "0x29cb6",
      "effectiveGasPrice": "0xf5616",
      "from": "0x5c14608e0b38ee4473fe2e973027f62a73f088e4",
      "to": "0x63e2fca219a486679bc02a5f1c967b5e8fe73c9d",
      "contractAddress": null
    }
  ],
  "libraries": [],
  "pending": [],
  "returns": {},
  "timestamp": 1763430661296,
  "chain": 11155111,
  "commit": null
}